S0190000626172652D6D6574616C2D6863737230342E73726563F0
S113000071C000008EC000008CC000008AC00000D7
S113001088C0000086C0000084C0000082C00000C8
S113002080C000007EC000007CC000007AC00000D8
S113003078C0000076C0000074C0000072C00000E8
S113004070C000006FC000006CC000006AC00000F7
S113005068C0000066C0000064C0000062C0000008
S113006060C000005EC000005CC000005AC0000018
S113007058C0000056C0000054C0000052C0000028
S113008050C000004EC000004CC000004AC0000038
S113009048C0000046C0000044C0000042C0000048
S11300A040C000003EC000003CC000003AC0000058
S11300B038C0000036C0000034C0000032C0000068
S11300C030C000002EC000002CC000002AC0000078
S11300D028C0000026C0000024C0000022C0000088
S11300E020C0000011241FBECFEFD1E2DEBFCDBF80
S11300F000E00CBF12E0A0E0B2E0E2EAF1E000E0D0
S11301000BBF02C007900D92A030B107D9F722E0CF
S1130110A0E0B2E001C01D92A030B207E1F72AD0FE
S11301203EC06ECF1F920F920FB60F9211248F9381
S113013085B1805885B98F910F900FBE0F901F9095
S1130140189584B1806884B90895E1E8F0E080816D
S11301508860808380818460808381E19AE79093C2
S1130160890080938800EFE6F0E0808182608083DC
S11301707894089503D0E5DFE8DFFFCF1092C5003F
S113018087E68093C400E1ECF0E0808180618083A5
S11301908081886080838EE08093C2000895F89403
S10501A0FFCF8B
S9030000FC
